:020000040000FA
:2010000000000420DD7B0000057C0000077C0000097C00000B7C00000D7C000000000000BB
:201020000000000000000000000000000F7C0000117C000000000000137C0000157C000078
:20104000A52E00003521000071170000177C0000177C0000177C0000152A0000177C000054
:20106000ED160000177C0000177C00004D260000177C0000092C0000177C0000177C0000E6
:20108000352C0000177C0000177C0000177C0000177C0000177C0000177C0000177C0000EA
:2010A000177C0000177C0000177C0000177C0000177C0000177C00000000000000000000BE
:2010C000177C0000177C0000177C0000177C0000177C0000177C0000177C0000816E00001C
:2010E000177C0000177C0000177C00000000000000000000177C000000000000177C000011
:201100000000000000000000000000000000000000000000000000000000000000000000CF
:201120000000000000000000000000000000000000000000000000000000000000000000AF
:2011400000000000000000000000000000000000000000000000000000000000000000008F
:2011600000000000000000000000000000000000000000000000000000000000000000006F
:2011800000000000000000000000000000000000000000000000000000000000000000004F
:2011A00000000000000000000000000000000000000000000000000000000000000000002F
:2011C00000000000000000000000000000000000000000000000000000000000000000000F
:2011E0000000000000000000000000000000000000000000000000000000000000000000EF
:2012000001F0FF01102A2BDB10F0070F08D010F8013B013A8B422DD010F0070F42B3F6D194
:20122000F0B441EA012141EA014122F007047FF000070023F0E80256083C85EA010586EA41
:20124000010685FA47F5A3FA87F586FA47F6A5FA87F68EB9EED1F0BC01F0FF0102F007023C
:2012600032B110F8013B013A83EA010313B1F8D10020704701387047002D06BF354603389F
:20128000073815F0010F07D1013015F4807F02BF013015F4C03F0130F0BC0138704700BF63
:2012A000D0B5038804463BB15C2B0DD188290FD082290DD00120D0BD80211D4808F040FE81
:2012C0005C2323800120D0BD002303800320D0BD07F000FDE8B907F0DFFC02460B4652EAAC
:2012E000030116D010A7D7E90067D90141EA5261D0018F4208BF86420FD3002908BFB0F5C6
:201300007A7F0DD34FF47A72002311F053FC0146D3E7084808F0FCFFD2E74FF4F051CCE71E
:201320000121CAE7AFF30080E733750000000000480F00205401002010B5054C237833B9A0
:20134000044B13B10448AFF300800123237010BD8807002000000000984C010008B5034BE9
:201360001BB103490348AFF3008008BD000000008C070020984C0100A3F5803A704700BFC3
:20138000174B002B08BF134B9D46FFF7F5FF00218B460F461348144A121A12F0C1FC0E4B8A
:2013A000002B00D098470D4B002B00D098470020002104000D000D48002802D00C48AFF38A
:2013C000008000F02BF82000290008F0D1FA00F011F800BF000008000000000000000000AE
:2013E0000000042040030020CC370020000000000000000008B5074B044613B10021AFF363
:201400000080054B1868836A03B19847204600F029F800BF000000002C41010070B50D4DD9
:201420000D4C641BA4100026A64209D10B4D0C4C12F070FE641BA4100026A64205D170BDD4
:2014400055F8043B98470136EEE755F8043B98470136F2E738030020380300203803002089
:201460003C030020FEE700BF08B509F0BBFCBDE8084009F071BC00BF00B585B009F0C6FA87
:20148000002009F0BFF900F041F909F087FB00F0FFFE09F083FB00F07FFF4CF6F461362215
:2014A0004FF08053ADF808108DF80A20D3F8A8208DF80B200422D3F8A43001930DEB020117
:2014C00003A812F043FC02A90822034812F03EFC05B05DF804FB00BF602E002001480021E4
:2014E00008F050BEB801002010B500F09FF90446BFF35F8F08F0D4FE00B930BFBFF35F8FC4
:201500002046BDE8104000F095B900BF802802D1024B00221A600120704700BF04C500406F
:201520000120704730B5134C0123236083B000F0D1F86FF003031D1A03E000F0CBF8C542C3
:2015400003D5D4F80031002BF7D00A4B0022C3F80021D3F80825D3F80835920544BF6FEA7E
:2015600083536FEA9353034A019301235360019803B030BD00C00040F8B588B10F46461EC6
:20158000002500E0013516F8014F20464CB1AF4207D000F0CBFE0A2CF4D100F097FEF1E776
:2015A000054600F093FE2846F8BD00BF30B5174B83B000221A6001F081FD00BB002001F02C
:2015C00099FD134B134A93E80300FF250090ADF80410062400231048ADF8005069468DF801
:2015E00002408DF8043000F0C7FF58B901210A4801F016F8084801F007F803B030BD00F0E6
:20160000E9FEDBE700F0E6FEF0E700BFA407002064410100491600006C410100014B18686D
:20162000704700BFA407002008B5064A13680133136008F09FFC00B908BDBDE8084008F044
:2016400079BC00BFA4070020042800D07047FFF7EBBF00BF014B1868C0097047A4070020A2
:2016600010B4164A164B17490020106083B012680192019AD3F8102522F00F0242F00802BB
:20168000C3F81025D3F8082542F00302C3F80825D3F804254FF4803422F003024FF480700E
:2016A000C3F80425C3F80443C1F88001086001221A6003B05DF8044B704700BF4081004037
:2016C0000080004000E100E0014BC3F84005704700800040034A044B01211160D3F8440583
:2016E000704700BF4480004000800040064B1A6802B97047002282B01A601B680193019BEA
:2017000002B008F08FBC00BF4081004030B4144B1448154D4FF0A04100220324C3F80025CA
:20172000C1F874474FF00054C1F80845C1F87C271F241D21C3F8245582B0C3F86C25C3F852
:201740001445C3F80C15026001680191019C074A04200121C3F80005116002B030BC70473D
:20176000002000401C21004000E0D70108200040074B0849084A0020186082B01B68019396
:20178000019BD1F818051368C0B202B0184700BF0821004000200040A80700204FF0A04350
:2017A0004FF49A510022C3F80815C3F80C25704700B5104B93E8070085B001AB83E8070079
:2017C0000D49184601F04AFA48B90C4801F080FA60B90B4B01221A7005B05DF804FB00F04B
:2017E000F9FD064801F074FA0028F2D000F0F2FDEFE700BF744101009D170000182D002019
:20180000192D0020024B1B7803B9704701F052BA192D0020034B1B7803B97047024B18787B
:2018200001F07CBA192D0020182D0020EFF3108072B6704780F31088704700BF00F01F03D2
:201840000121C0F34710994009F0AEBA08B500F09FFF00B108BDBDE8084000F04FBF00BFB7
:2018600030B583B01446022301F01F0100228DF8063014F00C0341EA4015ADF8042006D0B1
:20188000042B25D0082B27D00C2B02D103238DF8043014F0030304D0022B15D0012B02D122
:2018A00003238DF805300E4A01A9284600F07AFF2306284603D401F073F803B030BD0121E3
:2018C00001F002F803B030BD01238DF80530EAE701238DF80430DCE702238DF80430D8E791
:2018E0003D18000001F01F0141EA40101F28CABF054B4FF0A04300F01F00D3F8101521FAAB
:2019000000F000F00100704700030050024B0022C3F8FC2F0120704700100040A1B11828CD
:2019200010D8DFE800F00D770F0F6E65605B453F3A0F0F0F36322E2A0F26221E1A17130074
:201940000020704701207047022070477D230B600020704700200860704710230B60002020
:2019600070470A230B600020704720230B600020704703230B600020704708230B6000209E
:201980007047D8230B60002070471A230B60002070470B230B6000207047244B1B780B60F7
:2019A00000207047224B93F900300B6000207047204B214A012082B018601368002BFCD0D2
:2019C0000020106012681D4B0192019AD3F8483503F07F035B420B6002B07047184B5B7902
:2019E0000B6000207047164B5B780B6000207047134BDB7800200860002BA1D001230B60CB
:201A000070470F4B1B7800200860002B98D004230B607047094B0B4AD3F80835A2FB03234A
:201A20009B080A33DBB20B60002070471A2D00201B2D0020141000401C1100400010004007
:201A4000DC000020CDCCCCCC0120704770B582B0FFF7ECFEBFF35F8F1C4B1B78ABB11C4BED
:201A60001C4902224FF0FF34C1F80843C3F88021C3F88020BFF34F8FBFF36F8FBFF35F8FD0
:201A800002B0BDE87040FFF7D5BE134903F0FF020A600968114B019101991A601A680D49B1
:201AA0000B4B00924FF0FF3502224FF44054009EC1F80853C3F88021C1F804431A60BFF396
:201AC0005F8F02B0BDE87040FFF7B4BEDC00002000E100E000100040301100403411004096
:201AE000144BD3F8FC0F28B1D3F85035DBB2032B01D000207047104B1B7803F0FF0073B121
:201B00000E4B1B78053B7A2BF3D80D4B1B68002BEFD10C4B1868B0FA80F040097047074A21
:201B20001378053B7A2BE5D892F8800080F00100704700BF00100040DC000020AC07002068
:201B400030110040341100400C2801D001207047042A05D121B1034B1B680B6000207047B9
:201B6000022070473008002070B51B4CD4F85055EDB2032D82B028D0184B1948194AC4F85B
:201B800004051949C3F8102501264FF00062C3F81415C3F80465C3F80425FFF757FFD4F81E
:201BA000003243F01003C4F80032D4F80032022D43F40023C4F8003209D00C4B0C4A0021A3
:201BC00019601B680193019B166002B070BD094B1E6002B070BD00BF0010004000F0014093
:201BE000AC070020381100404C80004058110040041000400810004070B52F4D2F49304A95
:201C0000304B00242C6084B02D680095009D0C600968019101991460126802922A4D029A00
:201C20001C6029781B6803934B1F7A2B039A38D88C1E2246691C12F089F82B195B783F2B17
:201C40002DD89B00DBB2214E214A3370D2F84835204A03F07F035B425BB299B20420137018
:201C600009F09EFC3178032009F09AFC1A4B2A781A491A74D1F84C055860D1F8481599608D
:201C80005200DA605D68104881220021023D1D6012F046F8FFF768FF204604B070BDFF2315
:201CA000D1E781222146284612F03AF8FFF75CFF204604B070BD00BF381100400C11004083
:201CC0003411004030110040AC0700201A2D0020001000401B2D00203008002000800040F4
:201CE00010B5038804461BB340F2C932934224D1822901D0012010BD124A1378053B7A2B4F
:201D000016D8114B1B6813B992F8803083B1FFF781FD09F0EFFB09F0A7FB8021FFF76CFFC8
:201D2000002805DD80B209F099FB084BDB68984740F2C9332380012010BD002303800320DD
:201D400010BD00BFAC07002030110040F84801007D2910B50C4609D801460A48A31C00F874
:201D6000013B224611F0F2FF002010BD064A074907480AF097FE21467D2206480AF092FE84
:201D8000012010BD44080020804101009041010094410100A441010030B5264C264A274863
:201DA0000F23C4F8103593780A3B03EB8303C4F808351179D579937952791B0643EA05230E
:201DC0000B4385B043EA0243002140F20222C4F86C36C4F83425C4F838050D22C4F83C15EF
:201DE000684611F09DFF9DF807309DF801009DF802109DF804205B0743EA002343EA0143B3
:201E000043EA825343F0C06343F00803C4F814359DF80A309DF809201B0443EA022343F0F6
:201E20007F0340F20122C4F81835C4F8502605B030BD00BF00100040DC00002021100100B1
:201E400008B5084BD3F8FC2F1AB1FFF78DFE012008BD0122C3F8FC2FFFF79EFFFFF784FE36
:201E6000012008BD0010004030B585B0FFF7E8FF104A11491148124C00231360156803951F
:201E8000039D0B600D680295029D03600368019301230198236001E00B6813B91368002B24
:201EA000FAD0044A044B10681B68B0FA80F0400905B030BD48110040441100404C110040F0
:201EC0002C10004010B5072859D8DFE800F0192258584D3A41042E4A2E48C9B25171D0F800
:201EE000FC3F5BB11179D479937952791B0643EA04230B4343EA0243C0F86C36002010BD71
:201F0000012940D000293CD1224BC3F8FC1F084610BDA1F10B030F2B33D81D4A1D4BC8B2C5
:201F20009070D3F8FC2F002AE8D00A3901EB81010024C3F8FC4FC3F80815FFF781FF20463A
:201F400010BD31F001001CD1114BC9B2D97010BD0F4A104BC9B25170D3F8FC2F002ACDD00B
:201F6000C3F80C15002010BD31F0070409D1084BC1F380011970FFF769FD204610BD0120D1
:201F800010BD022010BDFFF75BFF002010BD00BFDC0000200010004010B57D2884B045D882
:201FA000294CFFF74DFFE378002B39D16378274A2749DBB20120C2F80C350860D2F85035BE
:201FC000DBB2022BFAD12349234BC2F8043500230B600868019001980B66086E0290029874
:201FE0008B648B6C0393039BD2F80032012143F48023C2F800321160FFF76CFB6FF00203B1
:202000001C1AFFF767FBE042FBD4104AD2F85035DBB20B2BFAD0FFF7A7FD002004B010BDD0
:20202000FFF722FF0028C1D10220F7E70B4A0C4904460C480AF036FD21460B480AF032FD77
:20204000012004B010BD00BFDC000020001000400C1000400C1100404408002080410100EC
:202060009041010094410100C041010010B50C46FFF76EFE2046BDE81040FFF78DBF00BFE1
:2020800010B51A491A481B4A1B4C00230B6003704B6023708B6082B0CB600B7413601368F6
:2020A00000934FF080430121009819601368002BFCD0002414601368019321460F48019BE5
:2020C00008F060F8214681220D4811F029FE0D4B0122C3F8FC2FFFF75FFE0B4A1378DBB208
:2020E0001370FFF7B3FC204602B010BD300800201A2D0020000100401B2D0020CC0000207F
:20210000AC07002000100040DC000020074A1378053B7A2B07D8064B1B6813B992F8800056
:202120007047012070470020704700BFAC07002030110040154B1B7803B1704700B503F020
:20214000FF02134B196883B029B9124B1A6882B903B05DF804FB1A601B6800930E480F4B29
:20216000009A012283F8802003B05DF804EB08F0CFB819601B68019381220848019B11F0F1
:20218000CFFD03B05DF804EBFFF7EEBCDC0000203011004034110040CC000020AC0700201B
:2021A0002DE9F047032908D8DFE801F009342A021B491C4A00230B701370BDE8F0871A4F35
:2021C0001A4EDFF86CA08846814606E040223146504602F053FE0028EFD1484602F04AFED7
:2021E0003B680546002BF1D00028EFD0444600E03B68305D0134E4B29847A542F8D8E5E757
:2022000040220A490A4802F039FE064B01221A70BDE8F087024B00221A70BDE8F08700BFA0
:202220001E2D00201D2D0020C4080020500900202C420100083808B5062805D8DFE800F036
:202240000E161F040404050008BD0F490F4A00230B701370BDE8084001F026B904F09CFA4C
:202260000028F1D1BDE8084001F01CB90649074A00230B701370BDE8084001F02BB9BDE899
:20228000084001F013B900BF1E2D00201D2D002008B503F0F9F9094801F060F800B108BDF3
:2022A000074801F025F90028F9D101F0E3F80028F5D1044A044B1070187008BD5042010017
:2022C0002C4201001D2D00201C2D0020124B1B780BB32DE9F041114D2B78D3B9104E337831
:2022E000BBB10123DFF840800E4F2B7032784146384602F09BFD0446FFF78CFA002CF5D1CE
:202300002B7823B1FFF786FA2B78002BFAD100233370BDE8F08170471D2D00201E2D0020CF
:202320001C2D00202C42010090090020114B1B78ABB1114B1A783F2A0DD810B419781A789E
:202340000E4C0132D2B21A701B786054402B0DD05DF8044B70471B78402B05D0704703F07B
:20236000FF02054B1A707047FFF7B0BF5DF8044BFFF7ACBF1D2D00201C2D002090090020D5
:2023800041B94FF0A04303214FF40022C3F84C17C3F80C25704700BF30B40A4B0A4D1D600B
:2023A0004FF080520949146952695C6102FB04F20024C3E90244491B59601A6130BC0448EC
:2023C00001F096B8E009002000100000A44C01005C42010000B585B00346002101AA44F2E0
:2023E0000100CDE90111039300F004F805B05DF804FB00BF72B6094B1B68DB0700D500BE56
:20240000BFF34F8F0649074BCA6802F4E0621343CB60BFF34F8F00BFFDE700BFF0ED00E0F1
:2024200000ED00E00400FA0572B6024A1368013313607047F8090020034A1368013B1360E7
:2024400003B962B6704700BFF8090020044A137923B9012110609180184670478520704747
:20246000FC090020084B1A68D20704D4C02283F8002301221A60054A4FF080410123C1F868
:2024800018351370704700BF00E100E0B837002010B4094B094A0021196083B01B680193D7
:2024A000019C4FF0804102200123C1F80403136003B05DF8044B704704010040080000406B
:2024C000074B00221A6082B01B68019301994FF080430122C3F804231A6002B0704700BF82
:2024E00000010040074B01221A604FF08042D2F80C3403F00113B3F1011FF8D0024B00229F
:202500005A71704704000040FC09002010B5174B1A6882B062B10021154A19601B6850799D
:2025200000934FF080410123009CC1F8083398B1104B1A68BAB100221A601B6801934FF0D1
:20254000804202210A4B0198C2F808131B68012002B0BDE810401847116853718847054BCD
:202560001A68002AE7D102B010BD00BF00010040FC0900200401004070B443791E4C1F4E57
:2025800003EB430546F82320655D8DBB90F904308A78002B24DB03F1604303F5614352010B
:2025A000D2B283F8002390F90430002B07DB144D03F01F0601225B09B24045F82320036852
:2025C0000A88C3F8082543790879C97803EB4303E218012550709170E554002070BC7047B2
:2025E000084D03F00F0352011D44D2B22A76DAE7082070BC704700BF040A0020080A0020BE
:2026000000E100E0FCEC00E00368044A01211960437903EB43030221D1547047040A0020C0
:2026200010B403680022C3F8002183B0D3F80031026801930123019CC2F8443311B1026822
:20264000C2F8043303B05DF8044B70472DE9F041274F284EDFF8A08084B000244FF4803501
:20266000D7F804332B4211D056F824200023E0B262B1C7F84853C7F8085346F8243056F858
:2026800024300393D8F80030039A98470134032C4FEA4505E4D1164BD3F80423D10702D536
:2026A000D3F80021C2B9124BD3F80423920710D5D3F804216AB10022C3F80421D3F80421E9
:2026C0000D4B0192019A1B68052004B0BDE8F041184704B0BDE8F0810022C3F80021064ACB
:2026E000D3F80031029304201368029A9847DAE700B0004040B10040080A002030B51F4CCB
:2027000094F86A3083B0002B34D104F12F03204604F15F01FF2203F8012F8B42FBD14FF02A
:20272000FF3222600123072B88BFE11803F1010340F8042F88BF81F858200C2BF3D1062292
:2027400000210F4811F0ECFA0E4BC02283F8062340221A600C4B0D4A002018601B68019302
:20276000019D01214FF0004384F86A10C2F8043303B030BD082003B030BD00BF0C0A0020D3
:20278000700A002000E100E07C61004000600040034B93F86A00003818BF0120704700BF38
:2027A0000C0A0020F0B4454F3B1893F93030002B5DDA91F802C0CCF3400CBCF1000F0CBF2D
:2027C0000823002307EB8304A4F104040CBF0C26082602E001339E424CD954F8045F01356A
:2027E000F8D13C1847F8232084F83030BCF1000F4FD08A7854071AD4D5074ED41F284C782F
:2028000087BF2F4D00F01F0202464FF0A04502F5E072A40045F822402A4DC40800F0070CA7
:202820002E5D012202FA0CF232432A558A7812F0020222D09B0003F1804303F5C043097834
:20284000D3F8104524F44F3424F44074C3F8104502020904D3F8100501F4403102F47C52C6
:202860000A430243C3F810250020F0BC70470820F0BC70470420F0BC7047083B1F4409781A
:2028800097F8603043EA811387F860301046F0BC7047FA1882F85800ABE71F2887BF084A3B
:2028A00000F01F0404464FF0A04202EB8402D2F8004724F00204C2F80047ADE70C0A002031
:2028C00000030050700A002070B4324C251883B095F93030072B22DD234493F858309B09BC
:2028E000032B46D0012B0CBF4FF400324FF440321F288ABF284B4FF0A04300F01F0003EB51
:202900008000D0F8003723F44033C0F80037D0F800371A43C0F8002703B070BC7047DAB262
:20292000072AF9D8980000F1804000F5C04003F140029200D0F8106592B202F1804202F562
:20294000C04246F00106C0F810650020106012680192019A0029DFD095F9302054F822208F
:20296000002AD9D00D49012202FA03F3C1F80433D2E71F288ABF084A4FF0A04200F01F035B
:20298000D2F8102598BF0346DA4002F0010202321204ADE70C0A0020000300500060004082
:2029A000194B034493F93030072B13DD1F288ABF164B4FF0A04300F01F0003EB8000D0F806
:2029C000003723F44033C0F80037D0F80037C0F800377047DAB2072A14D810B49A0002F1A8
:2029E000804202F5C0420A4CD2F81005012120F0010001FA03F3C2F81005C4F808335DF8A8
:202A0000044B7047704700BF0C0A002000030050006000402DE9F04F002289B0CDE9022287
:202A200016461546704B714C7148012204E0043383424FEA420211D019680129F7D1D4F80E
:202A400004131142F3D01D60196800910433834246EA020600994FEA4202EDD1654B1A6880
:202A6000012A07D016F0FF0F17D1002E32DB09B0BDE8F08F00221A601B6801934FF0A0426C
:202A8000019BD2F810255C4B0292D3F81035039316F0FF0F1ED046F00046584F012500244B
:202AA000A30003F180432E4203F5C0434FEA45050BD0D3F8100557F82420D3F81015C0F3DD
:202AC0000520C1F3014102B190470134082CE7D1002ECCDA4FF0FF33494D0DF1100ACDE987
:202AE00006330022CAF804200492A5F16408454C0027012614F9010B431C32D0C0F3C20E21
:202B000008AB03EB0E0C00F007031CF8081C06FA03F31942C2B200F03F0022D008EB0009E6
:202B2000910999F9309058F82990B9F1000F4CD003294CD01F288BBFDFF8BCE04FF0A04E52
:202B400002F01F0202460EEB82021CF818ECD2F800C71EEA030FCCF3014C1BD1BCF1030F23
:202B60003CD0A542C6D1002F81D04FF0A0430299D3F81035204A9942D2F8102503D10399CA
:202B800091423FF474AFDDE90401CDE90232CDE90601ACE7BCF1020FE3D1032904D0B9F1EB
:202BA000000FDED0C847DCE74FF4403CD2F8003723F44033C2F80037D2F8003701374CEADC
:202BC0000303FFB2C2F80037E9E70329C9D11AF80EB04BEA030B0AF80EB0ABE70329DED177
:202BE0004FF4003CE2E700BF0061004000600040206100407C610040000300500C0A002026
:202C0000700A00206C0A0020074B0849084A0020186082B01B680193019BD1F808051368C1
:202C2000C0B202B0184700BF00D1004000D00040780A002010B5074C236882B03BB1064B7D
:202C40001B6898470023236023680193019B02B010BD00BF000101407C0A002070B5114B0A
:202C6000114A1D781160DDB9104E027801211970C6F80C25416804464FF47A720023C803DB
:202C8000490C0FF097FFC6F80405237A084A5B01DBB282F810334FF480331360284670BDEA
:202CA000082070BD202D00207C0A00200000014000E100E0044B054901220220C3F80423E6
:202CC0001A600870704700BF00000140202D002010B504460020FFF7A7FB0E4A1378072B02
:202CE00011D80D492370581C1070D1F80805012202FA03F30343C1F8083500240020FFF7AD
:202D00009BFB204610BD04240020FFF795FB204610BD00BF1F2D002000000140034B044AE1
:202D200000F5C07043F82020704700BF000001403546526E104A1378DBB910B403780F49F1
:202D40004FF08044C3F34003C4F88035037803F00103C4F878350B68DB0704D4C02381F8A2
:202D6000003301230B600123137000205DF8044B70478520704700BFB937002000E100E083
:202D8000014B02681A607047880A00204FF080434FF46072C3F80423704700BF4FF0804329
:202DA0004FF46072C3F80823704700BF014B00221A607047880A002010B54FF0804386B054
:202DC000D3F80443620705D5D3F8082103F58473002A4ED1A30603D52A4B1A68002A3FD1C0
:202DE000600603D5284B1A68002A2FD1210602D5264B1A680ABBE20502D5254B1A6892B9C5
:202E0000A3050ED5234B1A685AB100221A601A68214B0592059A1B68022006B0BDE810401C
:202E2000184706B010BD00221A601B4A1B68049301201368049A9847E2E700201860164ABB
:202E40001B6803931368039A9847D4E700221A60124A1B68029301201368029A9847C5E7D4
:202E6000002018600D4A1B6801931368019A9847B6E700221A600A4A1B6800931368009A9F
:202E80009847A7E714010040180100401C0100402001004024010040880A0020840A002094
:202EA000800A002008B5FFF787FFBDE80840FFF72DBB00BF10B44FF080414FF080520020B0
:202EC000C1F80C015E4BC1F81001C1F83805D2F80414C3F82015D2F80814C3F82415D2F84D
:202EE0000C14C3F82815D2F81014C3F82C15D2F81414C3F83015D2F81814C3F83415D2F81A
:202F00001C14C3F84015D2F82014C3F84415D2F82414C3F84815D2F82814C3F84C15D2F859
:202F20002C14C3F85015D2F83014C3F85415D2F83414C3F86015D2F83814C3F86415D2F8A9
:202F40003C04C3F86805D2F840043E49C3F86C050968D2F84424C3F87025082924D04FF0F1
:202F60008043D3F80024D20744BF6FF00102C3F80024354AD2F8883043F47003C2F8883065
:202F8000BFF34F8FBFF36F8F4FF01023D3F80022002A23DBD3F80432002B1FDB2B4B2C4A58
:202FA0001A605DF8044B70472A4B1B68002BD6D129482A4A2A4C04602A492B4BFB20C2F8F5
:202FC00018050A681B68294822F00F0203F00F0313434FF400720B600260C0E7244A012335
:202FE000C2F80435D2F80034002BFBD04FF0102312211F4AC3F80012D2F80034002BFBD01B
:203000004FF0102312211A4AC3F80412D2F80034002BFBD000231649C2F80435D1F8003470
:20302000002BFBD0BFF34F8F0749124BCA6802F4E0621343CB60BFF34F8F00BFFDE700BF80
:2030400000C000403001001000ED00E0F40000200090D003340100108C56004000F0004054
:2030600048810300E40E0040580200104096024000E001400400FA0510B568B90E4CA36861
:20308000012262703BB1D3E900230020A2609847A368002BF7D110BD0128FCD1064C2369D0
:2030A000A070002BF7D0D3E900230120226198472369002BF7D110BD8C0A002010B50B4C8E
:2030C000237882B013B1852002B010BD08486360A3602361E360FFF7B9F90190FFF7C2F974
:2030E00001980123237002B010BD00BF8C0A00207930000038B5154DAB78044673B110B142
:203100004368012098470020FFF78EF9EB680133EB600020BDE83840FFF78EB903F0FF0029
:20312000FFF782F964B12A6942B1944208D0134601E09C4204D01B68002BFAD122602C6161
:20314000EB68002BE2D1FFF7A3F9DFE78C0A002038B5154D6B78044673B110B14368002004
:2031600098470020FFF760F96B6801336B600020BDE83840FFF760B903F0FF00FFF754F9AE
:2031800064B1AA6842B1944208D0134601E09C4204D01B68002BFAD12260AC606B68002B76
:2031A000E2D1FFF78DF9DFE78C0A002038B50B4C0020FFF739F96368013B6360656825B16B
:2031C000BDE838400020FFF737B9FFF78BF965700020BDE83840FFF72FB900BF8C0A0020ED
:2031E00010B5074C23784BB9064B002808BF1846FFF7A0FD08B90123237010BD852010BD30
:20320000212D00208042010000B583B00190FFF7C5FDFFF7CBFD0198FFF7B2FDFFF7B6FDA7
:20322000002003B05DF804FB0378052B02D0094B1B681847084BD3F88424D3F8803413F06C
:20324000FF0FF4D1054BD2B2052A08BF1846014B1B681847A00A0020007002409C420100EA
:20326000014B02481B681847A00A0020A0420100012803D0022809D020B17047054B064804
:203280001B681847034B05481B681847014B04481B681847A00A00209442010090420100E1
:2032A000984201002DE9F04F87B0002504460F4690469946029500E00135626801235668D5
:2032C0002146002202A8B0470028F5D18DF80600049065B3824683460AE09DF8063066688B
:2032E000023B7668B0479DF806309B445D451ED962680123566821460DF1060204A8B047BD
:2033000062680123566821460DF1070204A8B0479DF80730BB424FF00002214604A8DCD126
:20332000D04508D00AF1010A5FFA8AFAD5E7052007B0BDE8F08F109A9DF80630136089F898
:20334000003089F801706168023B4D6809F102022146A847002007B0BDE8F08FF0B5054651
:2033600083B03B4803F0B4F8044610B1204603B0F0BD384A3849394B14700C6048222146DF
:2033800037481C6010F0CCFC36482146482210F0C7FC002D54D095E80700334B83E8070093
:2033A000002847D00020FFF71BFF08B1852844D12E4D2B7A002B49D0013BDBB205F10C02F2
:2033C0004FF0030E6E68274FDFF894C01EFB032E05F109046378EBB1A278611C1144013B3A
:2033E00051FA83F1224408E003F00F0307EBC30391421D60306858600CD012F8013B180623
:20340000F2D503F00F030CEBC30391421D6030685860F2D103347445DCD10B238DF804303C
:203420001248336801A99847044600289ED003F091F89BE70E4A1A60B4E7FEF7CBFFB7E766
:20344000094B0B4A5D601D721A60ABE76E68E4E729320000232D00203C0B0020400B00202D
:20346000AC0A0020F40A0020A00A0020CC4201003938000010B503F087F968B103F08CF945
:20348000044648B90648FFF7BFFE034628B1FEF7A1FF2346184610BD0823184610BD00BF80
:2034A0008C42010003F060B803F062BF4FF0804303E0D3F83824D10707D5D3F8382492079E
:2034C000F7D5024B02481B6818477047A00A0020A442010000B5054B83B082221B688DF85B
:2034E000042001A8984703B05DF804FBA00A00202DE9F043057A83B0002D5ED005F1FF3EC6
:203500005FFA8EF300F10C024FF0030E00F10901334FDFF8D4C01EFB032E0C4666780022FE
:20352000964204EB020319D094F8028013F9089013F80830B9F1000F0BDB03F00F0307EB4B
:20354000C3031B680132002BEAD0112003B0BDE8F08303F00F030CEBC303F2E70334A64551
:20356000DCD100261E4FDFF880C0324602EB42020A445378EBB1002423460CE003F00F0318
:2035800007EBC303186045682D685D6055780134E3B29D420CD99578134413F905E05B5D94
:2035A000BEF1000FEADA03F00F030CEBC303E9E7057A0136F2B29542D8D80A4A13681BB17B
:2035C0001A681368002BFBD1106043680B228DF804201B6801A9984703B0BDE8F08300BF70
:2035E000F40A00203C0B0020AC0A0020024B1878003818BF01207047222D0020030710B56E
:20360000044604D52046BDE8104003F049BD03F05DFA204603F09CFD2046BDE8104003F0A9
:203620003FBD00BF03F082BF014B1868704700BF3C0B0020F0B40E4B1F688FB13E7A96B12F
:2036400000231C463A4602E0DCB2A6420BD9557A854203F1010302F10302F5D101B10C70AF
:203660003846F0BC70473B681F68002FE6D1F7E73C0B0020436811461B68184700F00F032E
:20368000082B0AD802064CBF054A064A02EBC303186810B143681B6818471020704700BF3C
:2036A000AC0A0020F40A002038B5094B1C6864B1054602E023681C683CB1636829461B6856
:2036C000204698470628F5D038BD062038BD00BF3C0B002038B50D46044603F0C9F818B175
:2036E000054B1B78022B01D0082038BD29462046BDE8384003F0CCB8232D002038B50D46B3
:20370000044603F0B5F818B1054B1B78022B01D0082038BD29462046BDE8384003F04AB910
:20372000232D0020F8B543689B6805460C4616461BB19847062800D0F8BDEEB92B7AA34236
:203740001CD9093504EB44042C44677897B133463A469A420BD9A378A2190136D05CFFF780
:203760004DFFF3B2BB4205D262789A42F3D800231B78FFDE0020F8BD0720F8BD7378FFDEF7
:2037800070B54368DB6805460C4603B198472B7AA3421AD9093504EB44042C4466789EB157
:2037A00000252B46324693420BD2A37862190135D05C03F0BBFEEBB29E4205D9627893429B
:2037C000F3D300231B78FFDE70BD00235B78FFDE43681B6903B118471846704770B50A4BBF
:2037E0001D687DB12E7A4EB100242146013400222846FFF797FFE1B2B142F7D32B681D682B
:20380000002DEFD170BD00BF3C0B002070B5094B1D6875B12E7A46B1002421460134284677
:20382000FFF7AEFFE1B2B142F8D32B681D68002DF0D170BD3C0B002070B503780446852B60
:2038400000F2BF80DFE813F00002B201BE003A026602E300EA00BD00040117012A01BD00C7
:20386000BD00BD00BD003D01BD00BD00BD00BD00BD00BD00BD00BD00BD00BD00BD00BD00F7
:20388000BD00BD00BD00BD00BD00BD00BD00BD00BD00BD00BD00BD00BD00BD00BD00BD0058
:2038A000BD00BD00BD00BD00BD00BD00BD00BD00BD00BD00BD00BD00BD00BD00BD00BD0038
:2038C000BD00BD00BD00BD00BD00BD00BD00BD00BD00BD00BD00BD00BD00BD00BD00BD0018
:2038E000BD00BD00BD00BD00BD00BD00BD00BD00BD00BD00BD00BD00BD00BD00BD00BD00F8
:20390000BD00BD00BD00BD00BD00BD00BD00BD00BD00BD00BD00BD00BD00BD00BD00BD00D7
:20392000BD00BD00BD00BD00BD00BD00BD00BD00BD00BD00BD00BD00BD00BD00BD00BD00B7
:20394000BD00BD00BD00BD005101860060011C02E301E3008C4B8D49D3E9000290478C4B3C
:203960001C684CB1894D636820461B682946984723681C68002CF6D1864C63680BB10D2066
:203980009847FFF743FF01F077FB834B1B68002B00F0FD810120814D02F0C4FE2A78931ECD
:2039A000DBB2062B00F215827D49CB5C13B1FFF7FDFB2A78022A40F00C8202F02FFF012351
:2039C0002B7070BD754D2A78931EDBB2062B00F2CD817349CB5C13B1FFF7E8FB2A78022ABE
:2039E00040F0C48102F01AFF6A4B5B6803222A700BB102209847664B1D6845B16B682846E6
:203A00001B68214698472B681D68002DF6D15E4B2146D3E90002BDE87040104790F902309C
:203A20008278002BB4BF5F4B574B02F00F0203EBC203D3E90002214690470028C1D0A0781F
:203A40000207BED00307BCD4BDE8704003F010B8504B5B680BB1082098474D4B1D68002DBA
:203A6000AFD06B6828461B68214698472B681D68002DF6D1A5E7474B5B680BB1092098470C
:203A8000434B1D68002D9CD06B6828461B68214698472B681D68002DF6D192E73D4B5B68A0
:203AA0000BB10A2098473A4B1D68002D89D06B6828461B68214698472B681D68002DF6D19B
:203AC0007FE7344B5B680BB10F209847304B1D68002D3FF476AF6B6828461B6821469847E5
:203AE0002B681D68002DF6D16BE72C4C2378062B00F04F8103F0FD03052B7FF462AF02F0CB
:203B000097FE0223237070BD244DFFF77FFE03F023FC2A78931EDBB2062B31D82049CB5C8B
:203B200013B1FFF743FB2A78022A29D102F076FE174B1C6800232B704CB11B4E6368204624
:203B40001B683146984723681C68002CF6D10E4B1549D3E9000290470E4B5B680BB10E2038
:203B600098472B78023BDBB2062B3FF62AAF0C4AD35C002B3FF425AFBDE87040FFF716BBE7
:203B8000082AD5D1D2E700BFF40A0020A84201003C0B0020A00A0020400B0020232D0020C0
:203BA00084420100AC0A0020AC4201009C4DFFF72DFE01F057FA2A78931EDBB2062B00F22A
:203BC000D9809849CB5C002B00F0D480022A03D0082A01D002F02CFE934B5B6802222A7098
:203BE0000BB101209847914B2146D3E9000290478F4B1D68002D3FF4E4AE6B6828461B681C
:203C0000214698472B681D68002DF6D170BD844D2B78032B00F0C68002F0C8FD00283FF43B
:203C2000D0AE2A78931EDBB2062B40F2EB808148FFF78EFA2A78022A01D0082A01D102F07C
:203C4000EDFD06232B7070BD754B1B78032B00F0A580082B00F0A280734B5B680BB1002051
:203C60009847754B1D68002D3FF4ABAE6B6828461B68214698472B685D68002DF6D170BDE4
:203C8000674D2B78032B7FF49CAE03F0A1FB00283FF497AE2A78931EDBB2062B00F2BB8075
:203CA0006049CB5C13B1FFF781FA2A78022A40F0B28002F0B3FD04232B7070BD584D2A78F7
:203CC000082A5CD0931EDBB2062B00F286805549CB5C002B00F08180022A00F087800523F3
:203CE0002B70514B5B680BB1032098474F4B2146D3E9000290474E4B1D68002D3FF461AEE9
:203D00006B6828461B68214698472B681D68002DF6D170BD444B5B680BB103209847434BC2
:203D20004649D3E900029047414B1C684CB1434D636820461B682946984723681C68002C85
:203D4000F6D1374D2B78062B1ED0082B0BD09A1ED2B2062A4DD833498A5C002A49D0022BE5
:203D600001D002F065FD02232B7070BD082A7FF43BAE37E62F48FFF7EBF92A7826E7022361
:203D80002B7002F05FFDACE707232B7070BD207A01E602F04DFD0823237070BD2848FFF7A7
:203DA0004BFD59E703F014FB00283FF435AF2A78931EDBB2062B2BD81A49CB5C13B1FFF7E2
:203DC000F5F92A78022A23D102F028FD04232B7022E7082A7FF4F3ADEFE51648FFF7B8F933
:203DE0002B78022B02D0082B7FF479AF02F016FD75E71048FFF7ACF92B78022BB3D0082B79
:203E0000B1D0AEE70749CB5C002B7FF414AF0EE7082ADBD1D8E7082A7FF44DAF49E700BF92
:203E2000232D002084420100A00A0020F40A00203C0B0020F8000020400B0020B442010082
:203E4000B04201004360CA699A4205D38A6902600B67CB610020704701F1280202608B67AB
:203E600000207047F0B504680E7A002C00F07284A4F212347C2C00F2C1827C2C00F2BE822D
:203E8000DFE814F074020003DE02CF02C7022A0307032303BC02BC02BC02BC02BC02BC0293
:203EA0006702D702BC02BC02BC02BC02CC010F03E602BC02BC02BC02F401EE038C03BC0294
:203EC000BC02BC02BC02FF00CB034803BC02BC02BC02BC02BC02BC026402BC02BC02BC027C
:203EE000BC0219019B039303AC035703BC02BC02C3038403B40339035F03BC02BC024103CF
:203F0000DB015003ED00BC02BC023203DB00F503BD00BC03BC02BC02BC02BC02BC02BC0211
:203F2000BC02BC02BC02BC02BC02BC02BC02BC02BC02BC02BC02BC02BC02C900D303BC027E
:203F4000BC02BC026703BC02BC02BC02BC02AC00BC02BC02BC02BC02AC00BC02BC02BC02F9
:203F6000BC02BC02BC027D00C002BC02BC02BC02BC02B800BC02BC02BC02BC02B800012443
:203F80000025002A00F0CD8307795755A3424FF00005057140F27C83171901343D70B04D87
:203FA0000F7D2D682D78AF4200F0B0838F7DAF4209D10025A342057140F24D85254601342C
:203FC0000AB107795755DFF8A0C2A64F9CF800503F780135EDB28CF800507BE101250024E2
:203FE0000AB1077917554024AB42047140F289836C1CC6E701240025002AE2D1E3E70124CB
:204000000025002A40F031848D7D0571A34240F262830134FFE001250024002A00F03D83B8
:2040200007791755AB424FF00504047140F27E83274602EB050C6C1CFDE201250024002A71
:2040400040F011840624AB42047140F23F8301350C7D0471AB4240F291836C1CD4E701254B
:204060000024002A40F003840524AB42047140F228836C1C2425A342057140F27583651CFC
:20408000E0E701240025002A00F0FA83077957554FF0000CA34280F804C040F29084651C19
:2040A0000027AB4202F804C0077140F2F383541901352770F3E001250024002A00F0EF832B
:2040C00007791755AB424FF02404047140F2C183274605F1010C002463455755047140F226
:2040E000A98325460CF101071024BB4202F80C50047140F29083254607F1010C01246345A6
:20410000D555047140F2788325460CEB04070524BB4202F80C50047140F25D83254607F100
:20412000010C24246345D555047140F24A8325460CF101070124BB4202F80C50047140F255
:204140003683254607EB040C03246345D555047140F228830CF1010702F80C40BB4291F81D
:2041600016C080F804C040F218837C1C0425A34202F807C0057140F20B8302EB040C2F4651
:2041800001342425A3428CF80070057140F2FB822F46651C1755AB424FF00204047140F268
:2041A0009F82274602EB050C6C1C0225A3428CF80070057140F2DD822F46651C1755AB4295
:2041C0004FF00504047140F27C82274602EB050C6C1C2425A3428CF80070057140F2C482EF
:2041E0002F46651C1755AB424FF00604047140F26D82571901353C700F7D0771AB4240F21C
:20420000BD826C1C5755A3428D7D057140F26382171901343D70124D2D6851E0012700242C
:20422000002A00F04082057915559F424FF00004047180F0F5827D1C39E101250024002A13
:2042400040F017830224AB42047140F249826C1C0225A342057140F28C82651C04E700BF9A
:20426000440B0020242D0020262D002001240025002A00F09883077957559C424FF002051C
:20428000057180F05883671C1555BB424C7E047140F2E48202EB070C7D1C8CF8004000241B
:2042A000AB42047140F221826C1C0AB107795755C64D91F814C02D682F78BC4500F01A821F
:2042C000DFF810E3DFF810C36F788EF8007000258CF80050BD423FD3BD4F3D780135EDB2ED
:2042E0003D70AE4240F2CA810925A342057140F25583651C002A00F0128307791755AB4208
:204300004FF00404047140F2B682274602EB050C6C1C8CF800700F7AAD4D2D78AF4240F245
:20432000AC8305EB450501F10907DFF8A0C217F805E080F804E03D449C42CCF8005080F0A6
:204340007E82671C002A7FF46EAFACE101240025ABE701250024CDE70725A342057140F200
:204360009281651C002A7FF45BAE96E1002A00F0EB8204791470012B4FF00B04047140F2E3
:20438000238302250127D455AB420F7D077140F25B8205F1010C022463455755047140F2DB
:2043A000448225460CF101070224BB4202F80C50047140F22B82254607F1010C02246345BC
:2043C000D555047140F213820CF1010702F80C40BB4291F819C080F804C040F2F7817C1C4F
:2043E0000025A34202F807C0057140F2E581171901343D70764F00253D7072E7002303605C
:204400001846F0BD002A00F0F282057917460124C4E5002A00F0F28205794FF0010C0027DB
:20442000CCE7002A00F0EC82057901274FF0000CBAE7002A00F0FF8207799446012468E746
:20444000002A00F0D78207794FF0010C0025A2E75E4C002A00F0E682077924689446012537
:204460008CF8007024780F7DA74200F0B9818F7DA7427FF414AF0A249D42047180F0F58279
:204480006C1C00E6002A00F0D28204790125002779E7002A00F0B08290F804C00124002732
:2044A0009EE7002A00F0C182047901250027DFF81CC1D455DCF80040AB426778077140F2E9
:2044C000A08102EB050C0135CAE7002A00F0B1820579174601248CE7002A00F08482047979
:2044E00001274FF0000C71E7002A00F0A7820779944601246DE6002A00F08E82047901270D
:204500004FF0000C28E6002A00F0A18207799446012436E6002A00F000821446077927705D
:204520000125BCE6002A00F08E820779944601243BE6002A00F07282057901274FF0000CEA
:20454000E5E5002A00F0608290F804C0012400270CE61E4C0125276800241AB190F804C0B1
:2045600002F804C03C780F7DA74200F0E9808F7DA7427FF438AD0224AB42047140F2708202
:204580002C460135002A7FF42CAD2CE5002A00F04782057901274FF0000CCBE5002A00F04E
:2045A000BC8104799446012577E6002A00F01682057901274FF0000C96E5002A00F04582E5
:2045C00007794FF0010C002585E500BF440B0020252D0020242D0020262D0020002A00F0E2
:2045E000308205794FF0010C002787E5002A00F00F8205794FF0010C0027A5E5002A00F06C
:20460000F48105791746012404E6002A00F0218205794FF0010C002783E5002A00F0F68194
:2046200090F804C0012500243AE5002A00F0EA810779944601248CF80070C14FC14D3F6808
:204640002D7897F801C0AC4540F2148297F802C03D44A34215F80C5005716CD9651C7CE7ED
:20466000002A00F0D7810579012700240CE6002A00F0B681047917460125BCE540F299331C
:2046800003600120F0BD40F26D3303600120F0BD4FF4617303600120F0BD0524AB42047113
:2046A00044D96C1CC9E79F42027180F0B9807D1CA34C2468AB426778077140F2A2800135C6
:2046C000D0E640F2553303600120F0BD40F2573303600120F0BD40F2593303600120F0BD5D
:2046E00040F2513303600120F0BD4FF44F7303600120F0BD0525A342057140F21781651CCD
:20470000DBE440F2833303600120F0BD0D6AA3422D7805713FF652AC40F2893303600120A5
:20472000F0BDA3420271B3D9013438E440F26E3303600120F0BD40F2723303600120F0BD8B
:204740000324AB4204713FF61BAF40F2773303600120F0BD08240471002B7FF407AE40F29E
:20476000123303600120F0BD40F2563303600120F0BD40F2523303600120F0BD4FF45673E3
:2047800003600120F0BD4FF4547303600120F0BD40F24F3303600120F0BD4FF4537303605C
:2047A0000120F0BD40F24B3303600120F0BD40F24A3303600120F0BD40F219330360012068
:2047C000F0BD40F2493303600120F0BD4FF4467303600120F0BD4FF4527303600120F0BDE7
:2047E00002249D42047180F0F4806C1C40E540F2173303600120F0BD40F2453303600120D3
:20480000F0BD4FF44A7303600120F0BD40F2163303600120F0BD4FF4517303600120F0BDD6
:2048200040F2273303600120F0BD40F2153303600120F0BD40F2433303600120F0BD40F205
:20484000263303600120F0BD4FF4457303600120F0BD40F2423303600120F0BD40F22E3337
:2048600003600120F0BD0779BCE40779CAE40779A4E407798EE440F2213303600120F0BD08
:20488000A342027140F29B80013400259C420571C0F0938040F2353303600120F0BD2424EF
:2048A000AB420471D5D96C1C00259C420571C1D2013410259C420571ADD2013401259C42DE
:2048C000057199D22C4405259C42057183D2013424259C420571BFF474AF013401259C42D3
:2048E0000571BFF464AF2C4403259C420571BFF459AF01348D7D05719C42BFF44EAF01345D
:204900000425A34205717FF643AF01342425A34205717FF638AF651C94E40125BFE404248D
:20492000AB420471A7D90F7A6C1CF5E440F2413303600120F0BD40F22D3303600120F0BD11
:20494000440B0020262D00200B24012B04713BD902240D7D05719C42BFF476AF0134022559
:20496000A34205717FF661AF013402259C420571BFF44CAF01340225A34205717FF637AFE7
:2049800001344D7E05719C42BFF420AF013400259C420571BFF410AF01342BE54FF44873DE
:2049A00003600120F0BD02259C420571C3D201344D7E05719C42BFF451AF651C6FE44FF498
:2049C0004D7303600120F0BD40F2133303600120F0BD4FF44B7303600120F0BD012468E797
:2049E0000125FFF735BB0124CBE7012413E40124FFF7D5BA0124B2E70124C8E70124BAE7B6
:204A00000124B2E7012418E6012479E701243CE7012469E70124CBE701246BE7012452E7C7
:204A200001245BE7246801251CE5012540E601248FE70124DEE4374601246DE40124FFF780
:204A400019BB01243AE7012402E401242CE701245CE701243CE740F28E3303600120F0BD25
:204A60004FF45F7303600120F0BD40F2333303600120F0BD00231B78FFDE024A00231360B2
:204A80001B78FFDE440B002078B910B504460868037B202B01D0062010BD00F10E010722D1
:204AA00018300FF053F9204610BD0320704700BF4360CA699A4210D38A6910B40260C869B8
:204AC0000C6FC01A1C441A44C86100380C6718BF01205DF8044B8A61704701F12802026033
:204AE00000208B67704700BF2DE9F0470B7888B00D4606460E2B14D8DFE803F00818080878
:204B0000130D281313181308080808000024204608B0BDE8F0874B78DA0930D15B09012B47
:204B20004CD00624204608B0BDE8F0870368002403F134022046C3E91E44C3E920445A67F7
:204B40001C845C62DC6208B0BDE8F087027A8B78002A00F06581817A0930002900F05E813A
:204B6000F17A415C9942D1D01B061ED4EF7807F0FD03012BCAD0002F65D00324C7E713F03E
:204B8000600FC3F3411200F09180012AC9D18B78212BC6D1B1F80720072AC2D10168681C70
:204BA000183100F073FA0446B1E7EC78002C00F09D80032C14BF03240024A8E78B78076882
:204BC000202B00F09B80222BABD1B1F80730002BA7D1B1F8035097F820303D8405F001029F
:204BE00003F001039342154690D0C3691BB1C2F10301C9B29847002D88D1337A012B40F294
:204C00000B81737B06F10C04002B00F00381B37BE05C02F007FC337A012B40F2FD80737B9F
:204C2000012B40F2F780B37B23442C46587802F0F9FB07F13403C7E91E55C7E920557D628C
:204C4000FD627B6763E73568012A05F10C0140F2DF80727B012A06F10C0340F2D78006912F
:204C6000B27B704905911344AC6A93F80180002C60D1EA6FEB6AAC67C5E91F42002B00F0F7
:204C8000B480296B1846002205F1240383E803004046EA6205A9FEF731FD0446F369002BCD
:204CA0003FF435AF30460021984730E703F01F03012B7FF436AF8C78062C7FF432AF05A880
:204CC000039200F0D9FC03AA00920746EA78297930463B46FEF7E6FA05283FF418AF039A5A
:204CE0003946681C00F0D2F9044610E7F369002B3FF40CAF30460121984708E7B1F807200A
:204D0000072A7FF40EAF3B73B1F80730DBB27B7300200E37CDE905730790FDF785FB00206B
:204D200005A9FEF7D7FC0446002867D00020FDF783FBECE6D5F88490686A4C4528BF4C4633
:204D400005F1340A224651460FF000F8E86FEA6AEF67A9EB04030AEB04010444C5E91D136D
:204D6000C5F88040002A43D005F12C0797E8030005F12404002284E80300EA62002B3BD09D
:204D800091461BE0696F686A0EF0E0FFD5E91D32A96AC5F880100B44521AC5E91D32F36939
:204DA00013B1002130469847EB6A13B397E8030084E80300AB6FC5F82C90EBB1AA6A934295
:204DC000E0D2696F686A1A460EF0C0FFD5E90932A96FE967521A0B44C5E9093253B14046CB
:204DE00005A9FEF78BFC044658E700236B6255E700236B62002451E76B6AEFE70A4B0496EE
:204E000003A9039300F024FC04468FE73B78FFDE7B78FFDE2B78FFDE6B78FFDE0B78FFDE80
:204E20005378FFDEB14A0000894A000010B503681C8CE40784B015D50B46017A012916D936
:204E4000417B00F10C0481B1817B605C91060CBF0124002401A9CDE901320394FEF73AFCAB
:204E600004B010BD082004B010BD0B78FFDE00235B78FFDE0368D3F880007047F0B5046857
:204E8000238CDB0783B022D50546002016460F46FDF7CAFAA26F42B9636AE3B111240020C1
:204EA000FDF7CAFA204603B0F0BD964228BF1646616F324638460EF049FFD4E91D239B1B9A
:204EC0003244C4E91D23C4F880600024E7E70824204603B0F0BDC4E909762A7A012A12D909
:204EE000697B012905F10C020FD9AB7B0849009113440C34587801946946FEF7FFFB041EF4
:204F000008BF9224CBE75B78FFDE1B78FFDE00BF453E0000002070472DE9F04F4B6885B0EC
:204F2000CDE900020C46002B71D001F09DFDE568019B9D4228BF1D468146002D7CD04FF0DF
:204F4000000A5646D3464FF00108D4E90113AB421F4628BF2F46E9B13A4609EB06000EF0B9
:204F6000F5FED4E90223D21BDB1BC4E90223C4F804B0ED1B3E442AB3002B08BF4FF0000897
:204F8000002DE2D1009BC3F800905E60404605B0BDE8F08FABB120463B4650F8101B4A68C6
:204FA000D2F804A009EB0602D047D4E90223D21BDB1BC4E90223ED1B3E445AB14FF0010AFA
:204FC000DAE7E368BAF1000F04D15BB99846002DBBD1D7E722681268126822604FF0010A83
:204FE000002BF3D02168F1B1CDF808B003E0A36821680133A3604B6800225F6802A8012303
:20500000B8470028F3D12061002D9ED1BAE70B681B681B68002B88D18B68002B85D1036013
:2050200043609846B2E76160002EABD0019BB34288BF4FF00008A5E72E464FF00108A1E7FD
:20504000054B0528187004D0044A137823F0020313700348FEF7F0BB272D0020282D00202F
:20506000DC42010008B50020FEF7C8FABDE808408020FEF7C3BA00BF08B50020FEF7D2FA21
:20508000BDE808408020FEF7CDBA00BF70B5C38893421E4628BF1646934284B00D4612D816
:2050A000002400200394CDE90156FDF7BDF901A98020FEF70FFB044688B10020FDF7BCF9C9
:2050C000204604B070BD8020144601F0C1FBB4FBF0F202FB1044B4FA84F46409E1E701F0B4
:2050E000A1FD80280BD1094A094B92E8030083E803000020FDF7A0F9204604B070BD0020E8
:20510000FDF79AF91024204604B070BD144301006C0B00202DE9F04F0B780E2B89B018D864
:20512000F3B1013B0D2B1BD8DFE803F01F0E281A354C1A1A1A1A0E666F07B24B1B78012BAC
:2051400002D00120FFF77CFF0024204609B0BDE8F08F852B04D1AB4B1B78032B00F0408197
:205160000624204609B0BDE8F08FA64B1B78032BF6D00320FFF764FF0624E6E7A24800F0FD
:20518000E3FA0028E0D0A14B01221A60BFF36F8FBFF34F8FD8E705230DF115008DF81430CE
:2051A00001F0A4FC9DF81530994E002203F01F043260032C00F2B980DFE814F0E800B9000D
:2051C00099008D00C87803280D46C9D0904E3368002B00F003810022716832609847044684
:2051E00000287ED13368002B00F00581AB78002BAAD101F0A1FCA8E7824B1B78002BA3D018
:205200000020FFF71DFF00249FE74FF08043D3F8383413F0010F7B4B1B7806D0022B93D0A7
:205220000220FFF70DFF00248FE7012B89D18BE7BDF81B30002B00F0D880092B28BF0923FE
:205240009946FEF7F1F90546002800F0E081BB464FF0090ACDF80CB04FF0000801E008F1D7
:2052600001086A68012357682946002203A8B8470028F4D12A682B7A15681C44C244E4B298
:20528000002DE7D1634D644928464A460EF05EFD2C71A5F802A0FEF7A9F918B1EB7943F0A2
:2052A0002003EB71FEF7C0F95C4BBDF81B2018600020C3E90159DA60FDF7B6F8584980206F
:2052C000FEF71CFA0446002800F0A4810020FDF7B3F8062C05D105A8FEF7E6F90446002C7E
:2052E00073D001F095FC204609B0BDE8F08F9DF81900020707D005A9FEF7C0F90628044644
:20530000EDD19DF8153013F0600F0ED19DF816303C4A9DF819401278012B00F0BE80032B43
:2053200000F0AB80002B00F0CB800624D9E79DF8190003A9FEF77EF90546002859D09DF80B
:205340000C1005AAFEF796F906280446C7D19DF8152012F0600FC4D12A4B9DF80C101B7865
:20536000D20940F019819DF816200B2AB9D1052B40F0B780BDF81730FF2B00F201819DF838
:2053800017202846FEF7CEF90446A8E713F0600FC3F341179FD1DB0948D19DF81630032BDD
:2053A00000F0A180092B00F0AD80012B93D1BDF81730012B8FD1FEF719F9002800F0DE80F6
:2053C000184A137823F00203137033686BB101F029FC044600287FF4B7AE0AE70E2480E7A4
:2053E0000420FFF72DFE0624AFE601F007FC0024ABE6102475E70C4B1B68082B38D001F06A
:20540000FDFBA2E6272D0020740B00205C7002406C0B0020780B0020E0420100540B00200F
:205420001C430100282D0020300100109DF81610062900F08C80082978D000297FF44BAF61
:205440007D4C022220460EF06BFC7C4B1B78990703D5237843F00203237077490DF1150089
:205460000222FFF713FE0446062C7FF438AF32E7734B1B68002BC2D166E625073FF555AF63
:20548000BDF81730002B7FF450AF052A01D0200727D1204601F0ECFA97E721073FF545AF49
:2054A000BDF81730002B7FF440AF052A01D0230717D1204601F00AFB204601F049FE84E7EC
:2054C000052A01D027070CD1204601F0DDFA5A49034602220DF115000B80FFF7D7FD0446D1
:2054E000FDE60824FDE6BDF81730012B7FF4F3AEFEF77CF8002841D0504A137843F002037F
:20550000137062E74F4C2378043B012BE9D89DF81730BBB3012B33D1FEF760F92378052BCA
:205520003FF453AF0520FFF78BFD4EE7454A1278052A47D0042A7FF4CEAE3F4B1F703E4942
:205540000DF115000122FFF7A1FD04468CE79DF81830022B3FF46CAE032B36D0012B7FF49A
:20556000BAAEBDF81B30002B3FF43FAF36490DF115001222FFF78AFD044675E70F24B0E6C5
:205580000724AEE6FEF742F92378042B3FF41DAF0420FFF755FD18E79DF816705FB30A2F82
:2055A0007FF49FAE052B9CD128460192FEF710F92149019A03460B700DF11500FFF766FD5A
:2055C00004468CE61C4A1370B9E7BDF81B30002B3FF40BAFBDF819109DF8170000F0A2F85A
:2055E000014600283FF477AE0A780DF11500FFF74DFD044638E7052B7FF473AF0E490DF18C
:20560000150002220F80FFF741FD044667E64FF0090A37E601F006FB802808D10B4B93E844
:20562000030086E803002046FCF706FFCDE62046FCF702FF102454E6780B0020282D002005
:2056400034010010272D0020004301001443010038B505460C4601F0E5FAA84207D194E85D
:205660000300044A82E803000023184638BD1023184638BD6C0B002008B140230360014811
:20568000704700BF780B002070B54FF0805286B0D2F8A830D2F8A42000926FEA83436FEA4B
:2056A00093430B4A0B4E9BB202A80D2107F046FA02AD002404E015F8013B06F8013B01349B
:2056C00002A80EF06BFB8442F5D306B070BD00BF244301004C2D002038B5114B53F8204097
:2056E00023780BB9A01C38BD0020FFF7C5FF217891B12246C4F101055319DCB2234620F847
:20570000141012F8011F0029F6D101335B00DBB243F44073038038BD40F20233FAE700BFC6
:205720008C43010040B1052808D8054A105C28B1044B53F820300BB1FFF7CEBF0020704707
:20574000A44301008C43010010B40346002253E8000F00EA020143E8001494F0000FF6D192
:205760005DF8044B704700BF30B44C689C4208D2002545600968016093420CD0002030BC66
:20578000704743600D6805600868E41A18449342C1E90004F2D1201E18BF012030BC7047EC
:2057A00010B4D1E900439A4228BF1A46C0E90042D1E90030801A1344C1E90030003818BF56
:2057C00001205DF8044B70474B689A4228BF1A4662B10B68C0E90032D1E90030801A13443B
:2057E000C1E90030101E18BF012070471346F1E710B5094B09491A68094C82B00023012009
:205800008DF804008DF80730ADF8053001A823700B70904702B010BDE00C00202C2D0020D7
:20582000292D0020704700BF00B583B00D4B0E4900228DF80420D3F82025ADF80620D3F874
:20584000C0040A4A0968136800280CBF4FF480704FF00120034301A81360884703B05DF885
:2058600004FB00BF00700240E00C0020BC0B0020F8B54B680B4F934228BF13461D460C4641
:2058800006461A46096838460EF060FAC6E90075D4E90030401B2B44C4E90030003818BF4E
:2058A0000120F8BDE80C0020F8B54B68934228BF13460D461C4606465BB933607460D5E94F
:2058C0000032121B2344C5E90032201E18BF0120F8BD044F096838461A460EF037FA3760CF
:2058E000ECE700BFE80C002010B5274BD3F80044C3F8004482B0BFF36F8FBFF34F8FBFF399
:205900006F8FBFF34F8FE1050ED5204B20491A68022000238DF80730ADF805308DF8040076
:20592000012301A80B709047A2050DD5174B18491A68032000238DF804008DF80730ADF84A
:20594000053001A80B70904763051AD5104B1A78BAB10D4C0F48012100221A70C4F8081511
:205960000160BFF36F8FBFF34F8F084BADF8052004211B688DF807208DF804100DEB010083
:20598000984702B010BD00BF00700240E00C0020292D00205870024070B5394A0126136862
:2059A00006FA01F423431360030682B0054610D4344B1B681C420AD1334B8DF80600062243
:2059C0001B688DF807608DF8042001A8984702B070BD2E4B00F00F0133F8113003F18043AC
:2059E00003F51C331A68DAB100221A60BFF36F8FBFF34F8F264B80281B6822D0082B08BFEF
:205A0000244B254808BF1A60244B03EB01120026927B0670032A4FEA011029D01B583BB37F
:205A2000184B19682140D2D1174B8DF8065006221B688DF807108DF8042001A8984702B017
:205A400070BD082B08BF134B134908BF1A60144B93F89E200020032A087003D0D3F8903059
:205A6000002BDDD16FF00101064801F02FFED7E7012303FA01F1C943024801F027FECFE78D
:205A8000BC0B0020B80B0020E00C0020B8430100300100101C7C02402A2D0020500C002026
:205AA000C00B0020064B93F900201878002AB4BF0021102100F00F031944FFF76DBF00BF3F
:205AC0002C2D00202DE9F04FDFF8F4A2DFF8F882DAF80040D8F80030234089B000F0C68056
:205AE00013F0012400F0C58094FAA4F4002C00F0C580B4FA84F70F2F3D461BD8DFF8CCA2A0
:205B00004FEA071B0AEB07165AF80B30B289716806A8984767F07F09012302974FFA89F983
:205B200003FA07F708B94AF80B006FEA070B05F008072CE0A7F11003974A4FF0010BDDB27B
:205B40000BFA07FB4FFA83F913F008032C4602EB05166FEA0B0B019340F0988003950022EC
:205B6000019205F594738D4A52F82330B28971683768029306A8B847069A22B1079A029B77
:205B8000934200F2DB80019F029400B93060844B1B68082B02D1834B82221A60D8F8002030
:205BA000B368079902EA0B020B44C8F800207E4AB360B9F1000F4FF001031370069A73DBBA
:205BC000002F00F08580754BC3F8A027C3F8A417734B1B68082B4FEA850540F08A80734BBA
:205BE0001B68002B40F08580B9F1000FB4BF042328231D446E4A6F49029B6F4EDFF8D081D1
:205C0000EDB2B4BF9146894605F1804509EB430905F51C35002701243760BFF36F8FBFF341
:205C20004F8F2C60BFF36F8FBFF34F8F022001F035FD3368002BEFD01E2001F02FFDD8F8C5
:205C400000309A0606D4022001F028FDD8F800309B06F8D5012001F021FDB9F8003003F1EF
:205C6000804303F51C331B68002BD4D009B0BDE8F08F93FAA3F4002C7FF43BAF1023464E77
:205C8000039399464FF0FF3B254668E7434BD3F8C034D9037DD5B28971683468019F0295FA
:205CA00006A80023A04770E7002F61D105EB85039B0003F1804303F51C33AD00C3F80026D5
:205CC000C3F80416364B1B68082B5CD0042311E005EB85039B0003F1804303F51C33AD00B6
:205CE000C3F80027C3F804172D4B1B68082B3FF476AF28232B44DBB203F1804303F51C3321
:205D000001221A60BFF36F8FBFF34F8F284B294A2A4913EA290938BF9146029B39F813204F
:205D200002F1804202F51C3202E00B68002B9DD11368002BF9D009B0BDE8F08F022459466A
:205D4000B4731F4801F0C2FC1E4B03991B688DF8174006228DF816108DF8142005A898478A
:205D6000DAF80030D8F8004023407FF4B9AE7DE70A4BC3F8A026C3F8A416094B1B68082B1B
:205D80004FEA8505A2D1094B1B68002B3FF42CAF9CE70395EAE600BFC00B00200070024076
:205DA000300100101C7C02402A2D002034010010B8430100D843010004710240007102408A
:205DC000B80B0020E00C0020BC0B0020500C00207474024038B5214BD3F86C44C3F86C4408
:205DE000BFF36F8FBFF34F8F1D4B1B68082B28D09CB1012594FAA4F3B3FA83F21146D3B1B8
:205E00000F2AA2F1100005FA02F30DDDC0B224EA0304FFF7C1FD002CECD1124B1B787BB980
:205E2000BDE83840FFF74EBE05FA02F224EA020441F08000EDE720211020FFF7ADFDD9E7E6
:205E400038BD094B1B68002BD2D1084A136803F0011123F0011311601C43C9E7007002407D
:205E6000300100102A2D002034010010E40C002010B5184B1B68082B82B002D1164B0022AF
:205E80001A60164B164C93F87E200021032A217005D01B6F6BB1FFF715FE02B010BD114861
:205EA0006FF4000101F012FC2378002BF3D002B010BD6FF400010B4801F008FC0A4B06214F
:205EC00007221B688DF80410ADF8062001A89847EAE700BF300100101C7C0240C00B002094
:205EE0002A2D0020B80B0020E00C0020134B1B68082B02D1124B00221A60124B124993F819
:205F00008E200020032A087002D0D3F8803003B1704700B56FF0807183B00C4801F0D6FB08
:205F20000B4B062108221B688DF80410ADF8062001A8984703B05DF804FB00BF3001001044
:205F40001C7C0240C00B00202A2D0020B80B0020E00C002000B5184B1B68082B83B002D142
:205F6000164B00221A60164B164993F81E210020032A087005D0D3F8103153B103B05DF8E8
:205F800004FB6FF48071104801F0A0FB03B05DF804FB6FF480710C4801F098FB0B4B06211A
:205FA00088221B688DF80410ADF8062001A8984703B05DF804FB00BF300100101C7C0240E7
:205FC000C00B00202A2D0020B80B0020E00C00200B4B1B68082B02D10A4B00221A600A4B4B
:205FE0000A4993F89E200020032A087003D0D3F8903003B1704706486FF0010101F066BBB6
:20600000300100101C7C0240C00B00202A2D0020B80B00200B4B1B68082B02D10A4B0022CA
:206020001A600A4B0A4993F80E210020032A087003D0D3F8003103B1704706486FF0800157
:2060400001F044BB300100101C7C0240C00B00202A2D0020B80B00200B4B1B68082B02D111
:206060000A4B00221A600A4B0A4993F8EE200020032A087003D0D3F8E03003B170470648C2
:206080006FF0200101F022BB300100101C7C0240C00B00202A2D0020B80B00200B4B1B6879
:2060A000082B02D10A4B00221A600A4B0A4993F8FE200020032A087003D0D3F8F03003B161
:2060C000704706486FF0400101F000BB300100101C7C0240C00B00202A2D0020B80B00200F
:2060E0000B4B1B68082B02D10A4B00221A600A4B0A4993F8AE200020032A087003D0D3F86C
:20610000A03003B1704706486FF0020101F0DEBA300100101C7C0240C00B00202A2D00208E
:20612000B80B00200B4B1B68082B02D10A4B00221A600A4B0A4993F8BE200020032A0870D6
:2061400003D0D3F8B03003B1704706486FF0040101F0BCBA300100101C7C0240C00B002037
:206160002A2D0020B80B00200B4B1B68082B02D10A4B00221A600A4B0A4993F8CE200020B4
:20618000032A087003D0D3F8C03003B1704706486FF0080101F09ABA300100101C7C02404B
:2061A000C00B00202A2D0020B80B00200B4B1B68082B02D10A4B00221A600A4B0A4993F897
:2061C000DE200020032A087003D0D3F8D03003B1704706486FF0100101F078BA30010010D1
:2061E0001C7C0240C00B00202A2D0020B80B002010B5184B1B68082B82B002D1164B00221A
:206200001A60164B164C93F82E200021032A217005D01B6A6BB1FFF755FC02B010BD1148F4
:206220006FF4802101F052FA2378002BF3D002B010BD6FF480210B4801F048FA0A4B06210F
:2062400002221B688DF80410ADF8062001A89847EAE700BF300100101C7C0240C00B002015
:206260002A2D0020B80B0020E00C002010B5184B1B68082B82B002D1164B00221A60164B77
:20628000164C93F83E200021032A217005D01B6B6BB1FFF717FC02B010BD11486FF40021F8
:2062A00001F014FA2378002BF3D002B010BD6FF400210B4801F00AFA0A4B062103221B68E7
:2062C0008DF80410ADF8062001A89847EAE700BF300100101C7C0240C00B00202A2D0020C5
:2062E000B80B0020E00C002010B5174B1B68082B82B002D1154B00221A60154B154C9A7FF7
:206300000021032A217005D01B696BB1FFF7DAFB02B010BD10486FF4003101F0D7F9237897
:20632000002BF3D002B010BD6FF400310A4801F0CDF90A4B062101221B688DF80410ADF8F3
:20634000062001A89847EAE7300100101C7C0240C00B00202A2D0020B80B0020E00C002052
:2063600010B5184B1B68082B82B002D1164B00221A60164B164C93F84E200021032A2170A2
:2063800005D01B6C6BB1FFF79DFB02B010BD11486FF4801101F09AF92378002BF3D002B06C
:2063A00010BD6FF480110B4801F090F90A4B042206211B688DF80410ADF806200DEB0200CC
:2063C0009847E9E7300100101C7C0240C00B00202A2D0020B80B0020E00C002010B5184B7A
:2063E0001B68082B82B002D1164B00221A60164B164C93F85E200021032A217005D01B6DDD
:206400006BB1FFF75FFB02B010BD11486FF4001101F05CF92378002BF3D002B010BD6FF413
:2064200000110B4801F052F90A4B062105221B688DF80410ADF8062001A89847EAE700BF1A
:20644000300100101C7C0240C00B00202A2D0020B80B0020E00C002010B5174B1B68082BF3
:2064600082B002D1154B00221A60154B154C93F86E200021032A217005D01B6E6BB1FFF7F2
:2064800021FB02B010BD10486FF4800101F01EF92378002BF3D002B010BD6FF480010A48DF
:2064A00001F014F9094A062312688DF80430ADF8063001A89047EBE7300100101C7C0240E7
:2064C000C00B00202A2D0020B80B0020E00C00201D490B78002B34D130B41C4C1C4A206020
:2064E00001240C701046194640251C4607E011F0080F00F1100014BF4FF40075402501315D
:20650000C9B20929A0F89C5080F89E40C0F89040C0F89840EBD14020002107E013F0080F9E
:2065200002F1100214BF4FF4007040200133DBB2092B9081917311609160EFD1002030BC38
:2065400070470820704700BF2B2D0020E00C0020C00B00200249034A00230B601370704717
:20656000E00C00202B2D002038B5604B4FF40062C3F80024BFF36F8FBFF34F8F5C4B1B6811
:20658000082B62D00D2B11D10020FBF74DFF594B1A68002A00F08780574B03221A60002076
:2065A000FBF74AFF524B1B68082B52D04F4A0123C2F80035BFF36F8FBFF34F8FD2F8003441
:2065C0001B05FBD54FF40063C2F80034BFF36F8FBFF34F8F464B1B68082B48D0434A474D77
:2065E000474843498024C2F81C45002340F2FF14C2F830352B6004600A68424D424C434930
:20660000082A08BF424A4FF0020008BF13600023374A2B70237008701368082B10D00D2B6A
:2066200012D10020FBF700FF324B1A68002A42D0314B00221A60BDE838400020FBF7FCBE2A
:20664000344B1B68002BECD138BD324B1B68002B9AD10020FBF7E8FE264B1A68002A3CD0A4
:206660002D4BC0221A600020FBF7E6FE9EE70020FBF7DAFE1F4B1A6842B3274B00221A60F2
:206680000020FBF7D9FE1A4B1B68082BA6D12349234B40F2E370402208601A60BFF36F8F2C
:2066A000BFF34F8F9AE7144949F2753203201A6008601A6073E7104849F27531196002609D
:2066C0001960BDE838400020FBF7B6BE124849F27531196002601960D2E70F4949F275321C
:2066E000C0201A6008601A60BDE700BF007002403001001000EC064014ED0640B80B0020AC
:20670000BC0B00202A2D00202C2D00202B2D00201C7C02403401001014EC0640007802400B
:2067200004780240114B00221A7028B9104B1B68082B13D00F4900E00F49104B104AC3F8BE
:206740000413C02182F82713802151600122C3F80425BFF36F8FBFF34F8F7047094B06499A
:206760001A68044B002A18BF1946E6E7292D0020300100100714C0010714E00100700240DA
:2067800000E100E034010010024B1878003818BF012070472B2D0020034B1878012894BF5D
:2067A00000200120704700BF2B2D002010B50020FBF73AFE144B1B7803F0FF0453B1134A52
:2067C000D2F82C355BB1124B1B680021082BC2F82C150AD00020FBF72FFE204610BD1C46A5
:2067E0000020FBF729FE204610BD0A4B1A683AB9094949F27532C0201A6008601A60E9E723
:20680000054BC0221A60E5E7292D0020007002403001001000EC064014EC0640024B034A85
:20682000C3F80823704700BF0070024004148001024B034AC3F80423704700BF007002400D
:2068400004148001014B00221A707047292D0020064B10F0800FA3F1900200F00F0008BFAE
:20686000134603EB00139889704700BF500C0020064A010600F00F034CBFD2F81005D2F89E
:206880001405D84000F00100704700BF007002402DE9F0414FFA80F8B8F1000F00F00F05EA
:2068A00004464FF00000B4BF074610270E46FBF7BBFD55B9324B1B78A34206D0102400202D
:2068C000FBF7BAFD2046BDE8F0812E4BDFF8DCC01C68DCF80030E4432F440122A4B202FA10
:2068E00007F71C433C4025D1B8F1000F29DB264A2649DFF8BC80280105EB450E42F80080F5
:2069000001EB8E0E02EB051896E80700204D1F43802600238EE80700C8E901E3CCF8007082
:2069200088F80E300020C5F80461FBF785FD2046BDE8F08111240020FBF77EFD2046BDE89A
:20694000F08132681349144802F0604205EB450EB2F1005F01EB051800EB8E0E4FEA0515B8
:2069600006D0B268D20754BF0C4A0D4A4A51CBE7B268D00754BF0B4A0B4A4A51C4E700BF8E
:206980002C2D0020BC0B0020C00B0020C82D002000E100E0500C00205C2D002071580000E8
:2069A000A9580000A1570000C9570000B80B0020695700002DE9F04147B2002F00F00F05A8
:2069C00004464FF00000B4BF80464FF010080E46FBF72AFD55B91F4B1B78A34206D0102437
:2069E0000020FBF729FD2046BDE8F0811A4B1B491C680A68E443A8440123A4B203FA08F39F
:206A000014431C401FD11648DFF858E0A0F1900C10EA270738BF674607EB051C2D01CCF868
:206A200008403068785113430B607268CCF8042080238CF80E400020CEF80431FBF7FCFCB0
:206A40002046BDE8F08111240020FBF7F5FC2046BDE8F0812C2D0020BC0B0020B80B0020C3
:206A6000500C002000E100E000487047E80C0020044B40F48070C3F81805BFF36F8FBFF319
:206A80004F8F704700700240010718D4020600F00F0309D40B4A9B001A445068A0F101003C
:206AA000B0FA80F040097047074A03F5847352F82300A0F10100B0FA80F040097047002043
:206AC000704700BF4074024000700240064BC3F80C05BFF34F8F40F48070C3F80C05BFF349
:206AE0006F8FBFF34F8F70470070024010B50822002104460DF014F90E4BD3F880242270E1
:206B0000D3F884246270D3F88824D3F88C1442EA01226280D3F89024D3F8941442EA0122DC
:206B2000A280D3F89824D3F89C3442EA0323E38010BD00BF00700240104B1B68082B07D036
:206B40000F4B01221A60BFF36F8FBFF34F8F70470C4B1B68002BF3D1EFF3108172B6084B90
:206B600001221A60BFF36F8FBFF34F8F1A60BFF36F8FBFF34F8F81F310887047300100107A
:206B80004C7002403401001010B5164B1B68082B82B002D1144B00221A60144B14499A7B05
:206BA0000020032A087015D01C681CB1FFF7C4FF02B010BD6FF480310E4800F087FD0E4B6B
:206BC000ADF8064006221B688DF8042001A8984702B010BD6FF48031064800F077FD02B0F7
:206BE00010BD00BF300100101C7C0240C00B00202A2D0020B80B0020E00C0020034B01222C
:206C00001A60BFF36F8FBFF34F8F704750700240034B01221A60BFF36F8FBFF34F8F70471F
:206C200054700240014B1878704700BF2C2D002070B5264B1B68082B044622D00020FBF7E9
:206C4000F3FB14F0800F224814BF0022102204F00F050368A91801228A4023EA020314F0EB
:206C60000804036008D11B4B05F5947543F82540BFF36F8FBFF34F8FBDE870400020FBF71C
:206C8000DBBB154B1D68002DD8D12846FBF7CCFB14F0800F0E48114E114904F00F0414BF00
:206CA000002210222244012303FA02F2036823EA0203036040F2C57303EB440434600D6084
:206CC00028460B68BDE87040FBF7B6BB30010010BC0B002000700240340100100078024042
:206CE000047802402DE9F04F5C4C5D4EDFF87C81236896F90010D8F800205A4896F8009080
:206D0000D0F88054DB439BB2002983B043EA020324DB09F00F0A0AF11002012797403B4244
:206D200048D1514F0DF1040805F080056FF001114E48357000F0CAFC23683968002205253C
:206D400043F0010340468DF80720ADF805208DF804502360884703B0BDE8F08F09F00F07EF
:206D60004FF0010A0AFA07FA13EA0A0FD9D00020FBF75AFB19F0080F10D1B9F1800F5ED036
:206D80003B493C4A07F2DA335B000B6013681168DBB243F002030B43136013682368D8F8CD
:206DA000002062EA030111EA0A0F24D12E4F0DF104081CE00020FBF737FBD8F800302E491C
:206DC00037EA030001EB0A1B4FEA0A1A33D1226841F80A0023EA070322EA0707C8F800302F
:206DE00027600323204F8BF80E300DF104080020FBF722FB98E721498DF806904FEA071C1D
:206E000001EB071022EA0A02174FC8F800204FF0000E41F80CE0032206210DF1040843EA1C
:206E20000A0382738DF807208DF804103A68236040469047DBE74846FFF7FAFED1E70C4B3C
:206E40000C4A40F2B471196013681168DBB243F004030B4313601368A0E700BFBC0B0020E8
:206E60002C2D002000700240E00C0020B80B00200078024004780240C00B0020500C002019
:206E80002DE9F0417C4BD3F80453002D00F0E0800024DFF804E2A44629460127774A91FA97
:206EA000A1F3B3FA83F08600324483B3166807FA00F321EA030136B1C2F800C0BFF36F8F5A
:206EC000BFF34F8F1C430029E8D16D4B1B68082B29D06C4F04F4000534F4000410D0DFF8DF
:206EE000BC81012694FAA4F3B3FA83F206FA02F19BB124EA010458F822309847002CF1D126
:206F00003B780BB9FEF7DEFD4DB9BDE8F081DEF80020002AC2D07246CEE79847E2E7BDE8A2
:206F2000F041FFF7DFBE584B564F1B68002BD1D13B78002B7ED1A00240F18380534A544BB6
:206F4000DFF848E1DFF848C140F2A971116019684E4A11F0FF0118BF1B6840F2AA7018BFFD
:206F600019404B4B10601A68494812F0FF021CBF1B681A40454B40F2AB761E60036813F015
:206F8000FF031CBF0068034040F2AC70CEF80000DCF8000001403F480AD0066840F2A9781E
:206FA0000E430660CEF80080CCF80010DCF80010DFF8D8C0364E40F2AD71CCF8001031686C
:206FC0000A4009D0016840F2AA7E41EA02410160CCF800E0326032682C492D4A40F2AE76EA
:206FE0000E60126813400ED0D90748BF44F400042649DA06264A40F2AB760E6013601368E7
:2070000048BF44F00104036833F001121CBF05F080710C4313F0011F3FF45CAF6B0544BFAB
:20702000026044F4806455E7174B1C68ECB9154F3B7833B104F4000534F400047FF44FAF76
:2070400062E704F4000534F400047FF448AF59E70B4B1B68082BE7D00A4B1B78002B7FF4CB
:2070600054AFBDE8F041FEF72DBD064B1B78002B3FF448AF49E700BF0070024000710240CB
:20708000300100102A2D0020340100100078024004780240E40C002080710240EC43010008
:2070A00070B5044640B2002833DB254B254A04F00F05595D012303FA01F1C2F80413D2F8EE
:2070C0001415E940C90723D4D2F81415AB400B43C2F81435BFF36F8FBFF34F8FC5B100288A
:2070E00016DB14F0080613D13046FBF79DF92046FFF79EFD144910350B68012202FA05F586
:2071000023EA05030B603046BDE87040FBF794B970BD0E4B0B4A04F00F05595D012303FA2B
:2071200001F1C2F80413D2F81015E940CE07EFD4D2F81015AB400B43C2F81035CAE700BF45
:20714000CC43010000700240B80B0020AC430100020610B5044609D4030707D4094A00F07E
:207160000F039B001A445368012B07D0064BC3F81845BFF36F8FBFF34F8F10BDFFF758FD85
:20718000F4E700BF40740240007002402DE9F04F5C4D5D4E2B6832684FEA134A4FEA0A4AB4
:2071A0005AEA020A83B01BD0584FDFF870819AFAAAF4002C00F08180B4FA84FBBBF10F0FAC
:2071C00030DDABF11003DCB213F0080F4FF0010303FA0BFB2AEA0B0A08D0BAF1000FE6D193
:2071E00040F2FF132B6003B0BDE8F08F07EB04190020FBF719F933683BEA03006CD12A6824
:20720000C9F8000023EA0B0322EA0B0233602A60032389F80E300020FBF70EF9BAF1000FA4
:20722000C5D1DDE71BF008004CD14BF08009FBF7FBF8B9F1800F0BF00F0351D0344803F243
:20724000DA3149000160D8F80010D8F80000C9B241F002010143C8F80010D8F80010D5F859
:2072600000C03068012460EA0C0E04FA03F11EEA010F1DD0274A8DF8069020EA01004FEA66
:20728000031E306002EB0313224800224CEA01014FF0030C40F80E2083F80EC01E4B8DF88B
:2072A00007C006221B688DF8042001A82960984704FA0BFB2AEA0B0AADE7B9464FF4803BE4
:2072C000102495E7012303FA0BFB2AEA0B0ABAF1000F7FF46CAF83E72046FFF7A9FC97E77D
:2072E0000B4940F2B4700860D8F80010D8F80000C9B241F004010143C8F80010D8F8001027
:20730000ADE700BFBC0B0020B80B0020C00B002000780240500C0020E00C00200478024065
:2073200008B5FFF733FF0A4B0022C3F80425BFF36F8FBFF34F8F074A8021C2F88410BFF3DB
:207340004F8FBFF36F8F4FF0FF32C3F8082308BD0070024000E100E0044B8022C3F88421C0
:207360005B681B0600D47047FFF7DABF00E100E008B5114B8022C3F884215B681B0618D463
:207380000E4B0022D3F80413C3F80813C3F80025BFF36F8FBFF34F8F094B0A491B68082B3D
:2073A00004BF094B1A60094B0020012208701A7008BDFFF7B5FFE3E700E100E000700240F7
:2073C000300100102A2D00201C7C02402B2D002010B50020FBF728F8104B1B782BB90024B6
:2073E0000020FBF729F8204610BD03F0FF04FFF7CDFE0B4AD2F8003413F40073EFD10121C1
:20740000C2F82C15D2F80014890544BF1C46C2F82C350020FBF710F8204610BD292D0020C2
:2074200000700240F0B5044683B00020FAF7FCFF22061ED4364E3748326804F00F0101F1BF
:2074400010050123AB400F0100EB011533EA02014CD1314CC151216822EA030221EA030380
:20746000326023600323AB730020FAF7E5FF03B0F0BD230704F00F020FD4802C3AD0274827
:20748000274902F2DA335B0003600B680868DBB243F0020303430B600B681F4D1C4E29688A
:2074A0003068012360EA010793401F42DCD01D4F8DF806404FEA021C20EA030007EB02123D
:2074C0003060194C002047F80C000B430620032191738DF8071022688DF8040001A82B60CD
:2074E00090470020FAF7A8FF03B0F0BD2046FFF79FFBB7E7094B0A4940F2B47018600B6821
:207500000868DBB243F0040303430B600B68C4E7B80B0020C00B0020BC0B002000780240F6
:2075200004780240500C0020E00C00202DE9F04146B282B004460020FAF776FF002E3CDB7F
:207540004C484D49026804F00F0707F110050123AB4033EA020C3D464FEA071E01EB07185A
:2075600076D1464C41F80EC0216822EA030221EA030302602360032388F80E300020FAF7A6
:207580005BFF3F490122D1F81435BA4023EA0203C1F81435BFF36F8FBFF34F8F394B3A4A7E
:2075A000374912EA260238BF1A460123525D9340C1F8083302B0BDE8F08104F00F0C230735
:2075C00065460FD4802C47D03049314A0CF2DA335B000B6013681168DBB243F002030B438E
:2075E00013601368DFF894E02248DEF800200168012361EA020703FA0CF31F4226D0254F4A
:207600008DF806404FEA0C1821EA0301224C016007EB0C1C002147F80810062003211A432B
:207620008CF80E108DF807108DF804002168CEF8002001A8DC4388470020FAF7FDFE104A17
:20764000D2F810352340C2F81035A3E7DC43F3E72046FFF7EDFA8EE70C4B0D4A40F2B47179
:20766000196013681168DBB243F004030B4313601368B7E7B80B0020C00B0020BC0B002047
:2076800000700240CC430100AC4301000078024004780240500C0020E00C0020084B094993
:2076A0001B68094AA1FB03139B0C916800FB03F09368CB1A23F07F438342F9D3704700BFF8
:2076C000F400002083DE1B4310E000E010B4034653E8000F00EA010243E8002494F0000FE1
:2076E000F6D15DF8044B7047F0B40D7A0DB101F109050468002C59D06FF4AB763444142C82
:2077000000F24A81142C00F24781DFE814F05400E700EE00F500FC00030109011001170196
:20772000450145011E0125012C0145013B0033012700390115003F0101250024002A40F03C
:20774000DB818A8AAB424FEA1222027140F2338140F26D1303600120F0BC70470125002423
:20776000002A40F0CD814A8AAB424FEA1222027140F226816C1C8A8A0271A34240F27B81C5
:20778000651CDEE701250024002A40F0B7810A8AAB424FEA1222027140F217816C1C4A8A40
:2077A0000271A34240F26C81651CDCE709240471002B00F0F680002A00F0A481047914709B
:2077C000012B4FF00404047140F2F0800227012694559F422D78057180F089817E1C0024B2
:2077E000B342D555047140F27D812546771C0024BB429555047140F2708125467E1CFF24FC
:20780000B342D555047140F263812546771C0124BB429555047140F2568125463E1901244F
:20782000B342D555047140F249812546371900249F429555047180F03C8125467E1C09243A
:207840009E42D555047180F02F812546771C21249F429555047180F0228126467C1C0925C1
:207860009C42D655057180F015811619013435700E7C0671A34240F20881651C16550E8A55
:207880009D424FEA1626067180F09F8057196C1C3E708E7C06719C4280F0F280651C1655BB
:2078A0004E8A9D424FEA1626067180F0898057196C1C3E700E7D0671A34240F2DC80651C10
:2078C0001655898A9D424FEA1121017173D22A44117040F26D13036001203DE7002A00F0C6
:2078E000B38004790127002672E7002A00F0A58005790126002772E7002A00F0978005791E
:207900000127002673E7002A00F0898005790126002774E7002A5DD005790127002676E7F5
